:100000000C946D110C949E110C949E110C949E11E5
:100010000C949E110C949E110C949E110C949E11A4
:100020000C949E110C949E110C949E110C949E1194
:100030000C949E110C949E110C949E110C949E1184
:100040000C949E110C94745A0C949E110C949E1155
:100050000C949E110C949E110C94146F0C949A980D
:100060000C949E110C94E92D0C94DF2D0C949E1190
:100070000C949E110C949E110C949E110C949E1144
:100080000C949E110C949E110C949E110C949E1134
:100090000C949E110C949E110C949E110C949E1124
:1000A0000C949E110C949E110C949E110C949E1114
:1000B0000C949E110C949E110C949E110C949E1104
:1000C0000C949E110C949E110C949E110C949E11F4
:1000D0000C949E110C949E110C949E110C949E11E4
:1000E0000C949E111C2E2C2E3D2E482E502E672E29
:1000F000542E672E582E5C2E672E622EE8370A3853
:100100002A384F3874382B3A9938BC38DF380439DC
:1001100029394E39733998392B3ABD39E239073AC2
:100120009C3E9F3EA33EA63EA93ED33EAD3EB03E82
:10013000B43EB73EBA3EBE3EC13EC43ED33EC83ECC
:10014000CB3ECE3EED95F095DF95E395E99527966C
:10015000F495F895FE95029606960C9610961496D0
:1001600027961A961E96229695979A979F97A997E3
:10017000B3972C98BD97C597CD97D797E197EB97F5
:10018000FA9704982C980E9818982298084AD73B0A
:100190003BCE016E84BCBFFDC12F3D6C74319ABD56
:1001A00056833DDA3D00C77F11BED9E4BB4C3E917A
:1001B0006BAAAABE000000803F05A84CCDB2D44E69
:1001C000B93836A9020C50B9918688083CA6AAAA6B
:1001D0002ABE000000803F000C94F4950C94F0952A
:1001E0000C94C43E0C94E8370C9498390C940C96FB
:1001F0000C94BE3E0C94ED950C94CB3E0C9404985C
:100200000C94E9950C94DF380C940E980C94672E9E
:100210000C94DF950C942C980C9404390C94CD9785
:100220000C94502E0C9422960C94C5970C945C2E32
:100230000C949A970C94582E0C94BD970C94482EBD
:100240000C9427960C94FE950C949F970C94A93EC1
:100250000C94BA3E0C94073A0C94EB970C94622ED3
:100260000C944F380C94E2390C941A960C942C2E62
:100270000C942B3A0C94542E0C943D2E0C941898FC
:100280000C94AD3E0C9406960C9402960C949938FE
:100290000C94E1970C9474380C94D7970C94A9970C
:1002A0000C94A33E0C9473390C941E960C94FA97FC
:1002B0000C9495970C949C3E0C94D33E0C94B3975D
:1002C0000C94B73E0C94C83E0C9429390C9458A554
:1002D0000C94B43E0C94BC380C94C7A50C94CE3E40
:1002E0000C94C13E0C944E390C942A380C94E3952E
:1002F0000C940A380C94A63E0C9414960C94109608
:100300000C9422980C94BD390C941C2E0C949F3E96
:100310000C94B03E0C94F8954E414E494E495459B8
:10032000494E46CDCCCC3D0AD7233C17B7D13877C0
:10033000CC2B329595E6241FB14F0A0000204100D6
:1003400000C84200401C4620BCBE4CCA1B0E5AAE20
:10035000C59D74434F4D4D554E49434154494F4EF1
:100360000044525952554E004552524F5253004983
:100370004E464F004543484F00456E642066696C09
:1003800065206C6973740A00426567696E2066694E
:100390006C65206C6973740A004E6F206D6564692A
:1003A000610A00286E6F2066696C652900437572CA
:1003B00072656E742066696C653A20005344207043
:1003C00072696E74696E67206279746520004E6F81
:1003D00074205344207072696E74696E670A004419
:1003E000656C6574696F6E206661696C65642C204C
:1003F00046696C653A200046696C652064656C65E9
:100400007465643A00256979202569642025696846
:100410002025696D20256973005072696E742074FF
:10042000696D653A2000446F6E652E0A0050756C48
:1004300073696E6720202000556E746F7563686560
:10044000642000534552564F206E6F7420736574BC
:100450002075702E0A005761746368696E6720709A
:10046000696E730A00656E6473746F70206D6F6ED1
:1004700069746F7220006F66660044454255473AC2
:10048000004D3131332053004348414D4245525FC6
:1004900054454D50455241545552450042414259F0
:1004A0005354455050494E470041524353004D4F1D
:1004B00054494F4E5F4D4F44455300544845524DAB
:1004C000414C5F50524F54454354494F4E004C4F9E
:1004D0004E475F46494C454E414D45004155544FAE
:1004E0005245504F52545F53445F535441545553F7
:1004F000005344434152440050524F4D50545F53B7
:100500005550504F525400454D455247454E435962
:100510005F50415253455200434153455F4C494758
:1005200048545F4252494748544E45535300544F34
:1005300047474C455F4C494748545300534F465436
:10054000574152455F504F574552004255494C4420
:100550005F50455243454E54004C4556454C494E1C
:10056000475F44415441005A5F50524F4245005248
:10057000554E4F5554004155544F4C4556454C002F
:100580005052494E545F4A4F420050524F475245D5
:100590005353004155544F5245504F52545F5445A8
:1005A0004D5000564F4C554D45545249430045451A
:1005B00050524F4D0042494E4152595F46494C45B9
:1005C0005F5452414E534645520053455249414CA7
:1005D0005F584F4E5F584F4646004649524D57416F
:1005E00052455F4E414D453A4D61726C696E203205
:1005F0002E302E372E3220284F6374203232203294
:100600003032302030323A30363A33322920534FAC
:10061000555243455F434F44455F55524C3A6874C9
:100620007470733A2F2F6769746875622E636F6DEB
:100630002F4D61726C696E4669726D776172652FBC
:100640004D61726C696E2050524F544F434F4C5F56
:1006500056455253494F4E3A312E30204D41434872
:10066000494E455F545950453A5369646577696E00
:100670006465722058312045585452554445525FA4
:10068000434F554E543A3120555549443A38386114
:1006900035306433622D616462312D343932642D1A
:1006A000383232662D3366333165623939306164F0
:1006B000330A002F2F2000416363656C65726174FB
:1006C000696F6E00466565647261746500416363BD
:1006D000656C65726174696F6E3A2050003F4A2004
:1006E0006F7574206F662072616E67652028302EEA
:1006F000303120746F20302E33290A0020204D61C4
:10070000783A200020204D696E3A2000536F6674BD
:1007100020656E6473746F70733A200046523A001D
:1007200020466C6F773A200020643A0020693A0036
:1007300020703A00496E76616C6964206578747245
:10074000756465720A006469730043290A00616276
:100750006C656420286D696E2074656D702000439F
:100760006F6C64206578747275646573206172655E
:100770002000546F6F206661722066726F6D207268
:1007800065666572656E636520706F696E740A00D8
:10079000454550524F4D204F4B0A004D38340044D0
:1007A0006F6E65207072696E74696E672066696C21
:1007B000650A004D3737004D33310074036F03680D
:1007C00003610353034572726F7220777269746913
:1007D0006E6720746F20454550524F4D210A0050DE
:1007E00072696E7465722073746F707065642064D2
:1007F000756520746F206572726F72732E20466962
:100800007820746865206572726F7220616E642052
:10081000757365204D39393920746F207265737492
:100820006172742E202854656D70657261747572E2
:10083000652069732072657365742E20536574207A
:100840006974206166746572207265737461727474
:10085000696E67290A004E6F20436865636B737584
:100860006D2077697468206C696E65206E756D62A5
:1008700065722C204C617374204C696E653A2000BF
:10088000636865636B73756D206D69736D61746307
:10089000682C204C617374204C696E653A20004CC2
:1008A000696E65204E756D626572206973206E6F8A
:1008B00074204C617374204C696E65204E756D62B6
:1008C00065722B312C204C617374204C696E653A33
:1008D00020004D3131300053442072656164206541
:1008E00072726F720A002121204B494C4C206361C7
:1008F0007573656420627920746F6F206D7563680D
:1009000020696E6163746976652074696D65202D58
:100910002063757272656E7420636F6D6D616E64B5
:100920003A2000627573793A2070617573656420AE
:10093000666F7220696E7075740A00627573793A19
:100940002070617573656420666F722075736572BF
:100950000A00627573793A2070726F636573736908
:100960006E670A005072696E7465722068616C74FB
:1009700065642E206B696C6C28292063616C6C6542
:1009800064210A00363726033C3D380E2E303E12D5
:1009900024221E1A1C180A07430907084400017C78
:1009A0003C3E5E2B3D3F2F5B5D3B2C2A225C00666C
:1009B0007265736800646F696E67004E6F77200020
:1009C0002020506C616E6E6572427566666572427B
:1009D000797465733A20002046726565204D656D17
:1009E0006F72793A2000436F6D70696C65643A20CC
:1009F0004F637420323220323032300A00204C6192
:100A0000737420557064617465643A2032303230FA
:100A10002D31302D3135207C20417574686F723A4C
:100A20002028447275636B6261722E6E6574290AA8
:100A300000322E302E372E320A004D61726C696EF4
:100A40000020536F66747761726520526573657418
:100A50000A00205761746368646F6720526573658C
:100A6000740A002042726F776E206F757420526591
:100A70007365740A002045787465726E616C20524B
:100A8000657365740A00506F77657255700A004D82
:100A90003234004D3233202573006175746F256345
:100AA0002E67004732385859004D313030310065DB
:100AB00072726F722077726974696E6720746F202A
:100AC00066696C650A00446F6E6520736176696EB5
:100AD000672066696C652E0A004D323900656E64C8
:100AE00073746F7073206869743A200070012C0170
:100AF00090012701B0012201C0011D01F001180180
:100B00001002130130020E0160020901900204017B
:100B1000C002FF000003FA004003F5008003F0006C
:100B2000D003EB002004E6007004E100E004DC00E8
:100B30004005D700C005D2004006CD00D006C80051
:100B40008007C3003008BE00F008B900C009B40037
:100B5000B00AAF00B00BAA00D00CA500000EA00098
:100B6000500F9B00C01096005012910000148C0092
:100B7000C0158700B0178200B0197D00D01B780027
:100B8000001E730040206E0090226900F024640073
:100B900040275F0090295A00E02B5500102E50008E
:100BA00020304B0010324600E033410090353C00CD
:100BB0001037370070383200A0392D00B03A2800C5
:100BC000A03B2300603C1E00103D1900903D140026
:100BD000103E0F00703E0A00C03E0500003F0000BE
:100BE000403FFBFF803FF6FFC03FF1FF6563686F4A
:100BF0003A004572726F723A00486F74656E6420F5
:100C0000746F6F20636F6C640A0050574D3A202058
:100C10002534640020202020434F4D002020206EEA
:100C20006F6E2D7374616E646172642050574D2035
:100C30006D6F646500202020636F6D7061726520A8
:100C4000696E7465727275707420656E61626C6530
:100C500064002020206F766572666C6F7720696E65
:100C60007465727275707420656E61626C65640083
:100C70002020202054494D534B00423A2000413A55
:100C800020002020202054434352002020202043D5
:100C9000533A20002020202057474D3A20002020A2
:100CA000202054494D45520020697320616C736FB8
:100CB000207469656420746F20746869732070699A
:100CC0006E0054494D45523143000A202E00202029
:100CD000506F72743A200047004800000088008A74
:100CE000008C00B300B400000098009A009C00A89B
:100CF00000AA00AC0028012A012C01440045006E26
:100D000000800081006F00B000B100700090009181
:100D1000007100A000A100720020012101730000F9
:100D2000009643000096430000C843000000000006
:100D300000000000000000206C696D69746564208B
:100D4000746F2000204D6178200053657474696EC3
:100D500067732053746F72656420280020746F6F6E
:100D6000206C6F6E6720657874727573696F6E2082
:100D700070726576656E7465640A0020636F6C64DA
:100D800020657874727573696F6E20707265766510
:100D90006E7465640A00DB0FC93F45BCDA3F8FB350
:100DA0000240FCF0274056946140FE4B9B4084A5D6
:100DB000D840E0231841346A5641E859974164DB32
:100DC000D5416E271742B4B75542CE1A9742C8AEE6
:100DD000D542B5885A43D40684BFA65FA7BF7443E3
:100DE000E0BF10B11AC01C2C58C0E8F697C0B84933
:100DF000D6C04E4E17C124D355C1802497C1A0B58B
:100E0000D5C1121A17C244AE55C2781797C26CAC3E
:100E1000D5C267885AC320520020204D3630332077
:100E20000020550046696C616D656E74206C6F61C1
:100E3000642F756E6C6F6164206C656E6774687387
:100E40003A0020204D33303420500020490020202B
:100E50004D3330312050005049442073657474691B
:100E60006E67733A0020204D323036205800486FAC
:100E70006D65206F66667365743A00204A00202015
:100E80004D323035204200416476616E6365643ACC
:100E900020423C6D696E5F7365676D656E745F744B
:100EA000696D655F75733E20533C6D696E5F666565
:100EB0006564726174653E20543C6D696E5F747246
:100EC0006176656C5F66656564726174653E204A33
:100ED0003C6A756E635F6465763E00205400202096
:100EE0004D323034205000416363656C657261742B
:100EF000696F6E2028756E6974732F7332293A20DA
:100F0000503C7072696E745F616363656C3E205221
:100F10003C726574726163745F616363656C3E20EB
:100F2000543C74726176656C5F616363656C3E000E
:100F300020204D3230312058004D6178696D756D3B
:100F400020416363656C65726174696F6E202875FA
:100F50006E6974732F7332293A00204500205A00BD
:100F600020590020204D3230332058004D617869DF
:100F70006D756D2066656564726174657320287592
:100F80006E6974732F73293A0053746570732070FF
:100F9000657220756E69743A0020440020204D323D
:100FA00030302053002044697361626C65640A002C
:100FB00046696C616D656E742073657474696E67E3
:100FC000733A0020286D6D290020204732312020FF
:100FD00020203B20556E69747320696E206D6D0072
:100FE00024F4D43050C38E20C2A24017828B7011DB
:100FF000127A910D816CD90AA861E108C758660779
:10100000615143061E4B5D05C145A7041A411104F9
:10101000093D9803713931034036DB026533910293
:10102000D4305402802E1D02632CEE01752AC501B6
:10103000B028A001102781018F2564012B244B01CA
:10104000E0223401AC211F018D200D01801FFC0026
:10105000841EED00971DDF00B81CD200E61BC60001
:10106000201BBC00641AB200B219A8000A19A00023
:101070006A189900D117910040178B00B5168400AB
:1010800031167E00B31579003A157300C7146F004E
:1010900058146A00EE1366008813630025135E007F
:1010A000C7125B006C12570015125400C111510099
:1010B00070114F0021114B00D61049008D104700D0
:1010C0004610440002104200C00F4000800F3E0056
:1010D000420F3C00060F3B00CB0E3800930E37004A
:1010E0005C0E3500270E3400F30D3200C10D3100C7
:1010F000900D3000600D2E00320D2D00050D2C00DE
:10110000D90C2B00AE0C2900850C29005C0C2700A3
:10111000350C27000E0C2600E80B2400C40B24001D
:10112000A00B23007D0B23005A0B2100390B21005B
:10113000180B2000F80A1F00D90A1E00BB0A1E0067
:101140009D0A1D00800A1D00630A1C00470A1B003F
:101150002C0A1B00110A1A00F7091A00DD091900F0
:10116000C4091900AB091900920917007B0918007E
:10117000630917004C0916003609160020091600ED
:101180000A091500F5081500E0081400CC08140041
:10119000B8081400A4081400900813007D08120079
:1011A0006B0813005808120046081200340811009A
:1011B000230811001208110001081100F0071000A7
:1011C000E0071000D0071000C0071000B0070F00A4
:1011D000A107100091070E0083070F0074070F008E
:1011E00065070E0057070E0049070E003B070D006C
:1011F0002E070E0020070D0013070D0006070D0037
:10120000F9060C00ED060D00E0060C00D4060C00FB
:10121000C8060C00BC060C00B0060C00A4060B00AF
:1012200099060C008D060B0082060B0077060B005A
:101230006C060B0061060A0057060B004C060A00FC
:1012400042060A0038060A002E060A0024060A0092
:101250001A060A001006090007060A00FD05090023
:10126000F4050900EB050900E2050900D9050900AC
:10127000D0050900C7050900BE050900B50508002D
:10128000AD050800A50509009C05080094050800A7
:101290008C050800840508007C050800740508001A
:1012A0006C050700650508005D0507005605080088
:1012B0004E050700470507004005080038050700F0
:1012C000310507002A050700230507001C05060055
:1012D000160507000F0507000805060002050700B0
:1012E000FB040600F5040700EE040600E80406000F
:1012F000E2040700DB040600D5040600CF04060064
:10130000C9040600C3040600BD040600B7040600B5
:10131000B1040500AC040600A6040600A004050004
:101320009B04060095040500900406008A0405004D
:1013300085040500800406007A0405007504050094
:10134000700405006B0405006604050061040500D7
:101350005C04050057040500520405004D04050017
:1013600048040500430405003E0404003A04050057
:1013700035040500300404002C0405002704040093
:10138000230405001E0404001A04040016040500CA
:10139000110404000D040400090405000404040001
:1013A00000040400FC030400F8030400F403040038
:1013B000F0030400EC030400E8030400E403040069
:1013C000E0030400DC030400D8030400D403040099
:1013D000D0030400CC030400C8030300C5030300CA
:1013E00024F404D9201BC40C5C0E9804C4095F02C9
:1013F00065077101F405F900FB04B3004804870098
:10140000C10369005803550003034500BE023A00BA
:101410008402310053022A00290225000402200020
:10142000E4011C00C8011900AF0117009801140065
:1014300084011300710110006101100051010E00C0
:1014400043010D0036010B002B010B0020010B00A6
:10145000150109000C01090003010800FB00080048
:10146000F3000800EB000700E4000600DE000600C1
:10147000D8000600D2000600CC000500C700050019
:10148000C2000500BD000400B9000400B50004005E
:10149000B1000400AD000400A9000400A500030091
:1014A000A20003009F0004009B00030098000300BB
:1014B0009500020093000300900003008D000200DD
:1014C0008B000300880002008600020084000300F5
:1014D000810002007F0002007D0002007B0002000C
:1014E000790002007700010076000200740002001B
:1014F00072000100710002006F0002006D00010027
:101500006C0002006A00010069000200670001002F
:101510006600010065000100640002006200010035
:1015200061000100600001005F0002005D00010039
:101530005C0001005B0001005A000100590001003D
:10154000580001005700010056000100550001003D
:10155000540001005300000053000100520001003C
:1015600051000100500001004F0001004E0000003A
:101570004E0001004D0001004C0001004B00000036
:101580004B0001004A000100490001004800000032
:10159000480001004700010046000000460001002D
:1015A0004500000045000100440001004300000028
:1015B0004300010042000000420001004100000021
:1015C00041000100400001003F0000003F00010019
:1015D0003E0000003E0001003D0000003D00010013
:1015E0003C0000003C0000003C0001003B0000000B
:1015F0003B0001003A0000003A0001003900000001
:1016000039000100380000003800000038000100F7
:1016100037000000370001003600000036000000EF
:1016200036000100350000003500000035000100E3
:1016300034000000340000003400010033000000DA
:1016400033000000330001003200000032000000CF
:1016500032000100310000003100000031000100C3
:101660003000000030000000300001002F000000BA
:101670002F0000002F0000002F0001002E000000AE
:101680002E0000002E0001002D0000002D000000A3
:101690002D0000002D0001002C0000002C00000097
:1016A0002C0000002C0001002B0000002B0000008B
:1016B0002B0000002B0001002A0000002A0000007F
:1016C0002A0000002A000100290000002900000073
:1016D0002900000029000000290001002800000066
:1016E0002800000028000000280000002800010059
:1016F000270000002700000027000000270000004E
:10170000270001002600000026000000260000003F
:101710002600000026000100250000002500000032
:101720002500000025000000250000002500010024
:101730002400000024000000240000002400000019
:10174000240001002300000023000000230000000B
:1017500023000000230000002300000023000100FC
:1017600022000000220000002200000022000000F1
:1017700022000000220001002100000021000000E2
:1017800021000000210000002100000021000000D5
:1017900021000100200000002000000020000000C7
:1017A00020000000200000002000000020000000B9
:1017B000200001001F0000001F0000001F000000AB
:1017C0001F0000001F0000001F0000001F0001009C
:1017D0001E0000001E0000001E0000001E00000091
:1017E000043700001E290000511B000058100000A3
:1017F00010090000CC040000780200004101000044
:101800005A325F535445505F50494E005A325F453B
:101810004E41424C455F50494E005A325F44495256
:101820005F50494E005A5F53544F505F50494E002D
:101830005A5F535445505F50494E005A5F4D494ED0
:101840005F50494E005A5F454E41424C455F5049FA
:101850004E005A5F4449525F50494E00595F5354FD
:101860004F505F50494E00595F535445505F5049A7
:101870004E00595F4D494E5F50494E00595F454EED
:1018800041424C455F50494E00595F4449525F50B8
:10189000494E00585F53544F505F50494E00585FB7
:1018A000535445505F50494E00585F4D494E5F506C
:1018B000494E00585F454E41424C455F50494E00ED
:1018C000585F4449525F50494E00534552564F337A
:1018D0005F50494E00534552564F325F50494E00BB
:1018E000534552564F315F50494E00534552564F63
:1018F000305F50494E0053445353005247425F4CAF
:1019000045445F425F50494E005247425F4C454458
:101910005F475F50494E005247425F4C45445F521B
:101920005F50494E0052414D50535F44395F50491A
:101930004E0052414D50535F44385F50494E005263
:10194000414D50535F4431305F50494E004D4F532D
:101950004645545F445F50494E004D415836363736
:10196000355F53535F50494E004C45445F50494EDC
:10197000004845415445525F4245445F50494E003E
:101980004845415445525F305F50494E0046414EF4
:10199000315F50494E0045315F535445505F5049C7
:1019A0004E0045315F454E41424C455F50494E0027
:1019B00045315F4449525F50494E0045315F4353C2
:1019C0005F50494E0045305F535445505F50494E7B
:1019D0000045305F454E41424C455F50494E004501
:1019E000305F4449525F50494E0045305F41555485
:1019F0004F5F46414E5F50494E00455F4D5558324E
:101A00005F50494E00455F4D5558315F50494E007B
:101A1000455F4D5558305F50494E004156525F5317
:101A2000535F50494E004156525F53434B5F5049FC
:101A30004E004156525F4D4F53495F50494E004151
:101A400056525F4D49534F5F50494E0054454D50DB
:101A50005F4245445F50494E0054454D505F315FF1
:101A600050494E0054454D505F305F50494E00463E
:101A7000494C57494454485F50494E0054584430EB
:101A8000005258443000202020416E616C6F672066
:101A9000696E203D2025356C64003C756E7573655C
:101AA000642F756E6B6E6F776E3E004F7574707538
:101AB00074203D2000496E70757420203D20007018
:101AC000726F746563746564200020284125326458
:101AD00029202000253364200050494E3A20002060
:101AE0004D3932205800496E736572742066696CF6
:101AF000616D656E7420616E642073656E64204D47
:101B00003130380A0053656E64204D31303820740E
:101B10006F2068656174206E6F7A7A6C650A0020A8
:101B2000496E76616C69642065787472756465725B
:101B30002000811A00017C1A01016F1A3B00641A0F
:101B40004300591A45004C1A44003F1A3201321A18
:101B50003301261A34011B1A3501101A2801051AFF
:101B60002A01FA192C01EA190701DF191C01D11900
:101B70001801C5191A01BB192C01B0192201A219AB
:101B80001E0196192401F21909018D190701801906
:101B90000A017119080169190D015A194201431A04
:101BA00032014D190701361A33013F190A01321962
:101BB0000801251909011719050109190401FB1864
:101BC00006012A1A3401F6183501EB180B01E0184A
:101BD0000601D5180501CA18040162193501C0189B
:101BE0003701B3182601A91803019E18360193186E
:101BF000030189183D017C18380172180E0167181D
:101C00003C015C180E015218300145183E013B188A
:101C1000120130182E01251812011A1822010C1871
:101C20001E0100182401202D20496E76616C696424
:101C3000206578747275646572206E756D62657268
:101C400020210A00544845524D414C2052554E41E6
:101C500057415900546865726D616C2052756E6110
:101C6000776179004572723A204D415854454D5084
:101C7000004D415854454D50207472696767657234
:101C80006564004572723A204D494E54454D5000EE
:101C90004D494E54454D50207472696767657265B1
:101CA00064000A0A0020205A5F4D494E3A00202065
:101CB000595F4D494E3A002020585F4D494E3A0039
:101CC000202F002042403A0020403A0020573A009E
:101CD000656E7175657565696E672022006F6B00B2
:101CE000526573656E643A200023646566696E65AB
:101CF0002044454641554C545F004B6420004B69DD
:101D000020004B702000504944204175746F747559
:101D10006E652066696E697368656421205075740C
:101D200020746865206C617374204B702C204B69A3
:101D300020616E64204B6420636F6E7374616E74F7
:101D4000732066726F6D2062656C6F7720696E74A8
:101D50006F20436F6E66696775726174696F6E2E6E
:101D6000680A00504944204175746F74756E65208F
:101D70006661696C6564212074696D656F75740AAC
:101D8000000A20436C617373696320504944200A40
:101D900000204B643A2000204B693A2000204B7011
:101DA0003A20000A204E6F206F76657273686F6F5D
:101DB000740A002054753A2000204B753A20002008
:101DC0006D61783A2000206D696E3A200020643AF7
:101DD000200020626961733A200050494420417517
:101DE000746F74756E652073746172740A00504963
:101DF00044204175746F74756E65206661696C6509
:101E000064212054656D706572617475726520740B
:101E10006F6F20686967680A0050494420417574F3
:101E20006F74756E65206661696C6564212042611E
:101E300064206578747275646572206E756D626574
:101E4000720A002062797465733B2063726320001C
:101E50004E6F20454550524F4D2E0A004545505279
:101E60004F4D206461746173697A65206572726F89
:101E7000722E0A002073746F726564207365747427
:101E8000696E67732072657472696576656420286F
:101E900000202863616C63756C6174656429210A94
:101EA0000020213D2000454550524F4D20435243D4
:101EB000206D69736D61746368202D202873746FC1
:101EC000726564292000496E6465783A20004449AF
:101ED0004749504F5453204C6F616465640A004475
:101EE000494749504F5453204C6F6164696E670AEB
:101EF00000204D61726C696E3D563832290A0045EA
:101F00004550524F4D2076657273696F6E206D6932
:101F1000736D617463682028454550524F4D3D00F4
:101F200048617264636F6465642044656661756CC2
:101F3000742053657474696E6773204C6F616465B7
:101F4000640A003B20000000964300009643000016
:101F50002042000020423D0AA14233B3A1429A9997
:101F6000C8430000E343B80B0000B80B0000640056
:101F70000000102700002053697A653A2000436171
:101F80006E6E6F74206F70656E2073756264697217
:101F9000200053442063617264206F6B0A006F70ED
:101FA000656E526F6F74206661696C65640A0076B5
:101FB0006F6C756D652E696E6974206661696C65FC
:101FC000640A004E6F20534420636172640A006FFC
:101FD00070656E206661696C65642C2046696C656D
:101FE0003A200046696C652073656C6563746564AE
:101FF0000A0046696C65206F70656E65643A200062
:10200000454E4420535542524F5554494E450A00BF
:102010002220706F73002220706172656E743A2204
:1020200000535542524F5554494E452043414C4C64
:10203000207461726765743A220053756263616C43
:102040006C204F766572666C6F77004578636565C6
:10205000646564206D617820535542524F55544950
:102060004E452064657074683A310A00577269748D
:10207000696E6720746F2066696C653A2000486F4E
:102080006D696E67204661696C6564006F70656E8E
:1020900000545249474745524544007A5F6D696E86
:1020A00000795F6D696E00785F6D696E00526570D2
:1020B0006F7274696E6720656E6473746F702073DD
:1020C00074617475730A005761726E696E673A20A5
:1020D000486F6D696E672042756D7020446976693E
:1020E000736F72203C20310A000000484200004813
:1020F00042000080400202040000A0400000A04016
:1021000000000040FFFFFF220A00556E6B6E6F77E4
:102110006E20636F6D6D616E643A20220020453A37
:1021200000205A3A0020593A0020436F756E7420FF
:10213000583A0042656400453100626564002C2015
:1021400073797374656D2073746F7070656421208A
:102150004865617465725F49443A2000486561745E
:10216000696E67204661696C6564004865617469E1
:102170006E67206661696C6564004D3131322053B1
:10218000687574646F776E000000002100240027DA
:10219000002A002D00300033000101000004010777
:1021A000010A0100002200250028002B002E00312A
:1021B00000340002010000050108010B01000020AD
:1021C000002300260029002C002F0032000001000F
:1021D00000030106010901050505050705080808B2
:1021E00008020202020A0A080804040404010101A8
:1021F00001010101010303030303030303040707B0
:10220000070C0C0C0C0C0C0C0C020202020606064D
:1022100006060606060B0B0B0B0B0B0B0B01021035
:1022200020200808102040102040800201020108F0
:1022300004020101020408102040808040201008A0
:1022400004020180040201804020100804020108F9
:102250000402010102040810204080010204081059
:1022600020408000000A0B02090C0D0E0807030431
:10227000010000000000000000000000000000005D
:10228000000000000000000000000000000000123C
:10229000111000000000000000000000000000001D
:1022A000000000000000000000486F6D65202573ED
:1022B00025732573204669727374004361703A0078
:1022C00047322F47332062616420706172616D650F
:1022D000746572730A00C7A558A511241FBECFEFFD
:1022E000D1E2DEBFCDBF00E00CBF12E0A0E0B2E063
:1022F000E6ECF5E601E00BBF02C007900D92A03DB1
:10230000B107D9F721E1A0EDB2E001C01D92A131E2
:10231000B207E1F711E1CCE6D1E100E006C0219778
:102320000109802FFE010E942EAFCB36D10780E03D
:102330000807A9F70E94AA9E0C94D1B20C94000041
:102340002F923F924F925F926F927F928F929F92C5
:10235000AF92BF92CF92DF92EF92FF920F931F93B3
:10236000CF93DF93CDB7DEB7EC970FB6F894DEBF0F
:102370000FBECDBF8AAF2DB73EB73CAF2BAF30916C
:10238000DD023DAB81E08093DD028091FD0A8D345A
:1023900009F407C2843511F40C94BE21873411F07E
:1023A0000C94E3212091FB0A3091FC0A2531310580
:1023B00011F40C94E5217CF4243031053CF42230F6
:1023C00031050CF002C137FF2FC0E7C124303105C1
:1023D00009F409C1E2C12A35310509F469C14CF497
:1023E0002B31310509F435C12C31310509F450C1C7
:1023F000D4C12B35310509F45FC12C35310509F005
:10240000CCC1FAEA2F2EF2E03F2EAFE1EA2EACE08B
:10241000FA2EA8E5BCE0BDA3ACA3BCE4CB2EBCE087
:10242000DB2E00E010E089C18091F304813011F0CF
:102430000C94E5210E94EB638CE29CE00E94D8871B
:102440008091E20983FD85C02091640C3091650C78
:102450004091660C5091670C6091380C7091390C6A
:1024600080913A0C90913B0C0E94B8AA882309F401
:1024700070C080916F0581111BC06091720C7091CA
:10248000730C8091740C9091750C0E94B5B02091E2
:102490003D0230913E02215031096217730744F426
:1024A0000E94163F8BE79DE00E94CE3C11E001C0E8
:1024B00010E02091640C3091650C4091660C5091B5
:1024C000670C6091380C7091390C80913A0C9091A6
:1024D0003B0C0E9448AF6B017C0120E030E0A90179
:1024E0000E94A9B187FF04C0F7FAF094F7F8F094BE
:1024F0002091390230913A0240913B0250913C02C6
:10250000C701B6010E941EAB20E030E048E453E46E
:102510000E94A9B118163CF40E94163F8CE59DE07C
:102520000E94CE3C02C01123A1F08091380C909102
:10253000390CA0913A0CB0913B0C8093640C9093B1
:10254000650CA093660CB093670C88E39CE00E9436
:102550002F452AE037ED43E25CE360914A02709137
:102560004B0280914C0290914D020E941EAB6B0178
:102570007C016091480270914902072E000C880B83
:10258000990B0E94BFAA9B01AC01C701B6010E9432
:102590001EAB69837A838B839C838E010F5F1F4FF1
:1025A00028E33CE044E35CE060E37CE08CE29CE018
:1025B0000E944D9680E1ECE2FCE0A8E5BCE00190D1
:1025C0000D928A95E1F70C94E5218091F304813016
:1025D00011F00C94E5212230310509F080E00E94D1
:1025E000E4980C94E52180E50E94183B882329F0AB
:1025F0000E944F3A6B017C0103C0C12CD12C7601A3
:1026000083E50E94183B882361F00E94933A20E002
:1026100030E04AE754E40E941EAB0E94BCB06B015C
:102620007C010E941E450E948E98C60ED71EE81E91
:10263000F91E0E948E98DC01CB018C199D09AE0910
:10264000BF09B7FD02C00C94E52180E00E942C294F
:10265000F0CF0E94A79681110C94E5218CE0EEE466
:10266000F2E0DE01119601900D928A95E1F780E586
:102670000E94183B882321F00E945F3A862F01C0F8
:1026800080E0BE016F5F7F4F0E94CF710C94E52107
:1026900080912B0C8770873011F00C94EE2160E054
:1026A0008FE40E94383B81110C94E5210C94EE21BB
:1026B0001092DC020C94E5218FE08093DC020C94F4
:1026C000E5210E94933A2B013C01133049F0D601D9
:1026D0002D913D914D915C910E9448AF2B013C01A1
:1026E000ECA1FDA12081318142815381C301B2015E
:1026F0000E9448AF4B015C012DEB37E346E855EBF8
:102700000E94A9B187FD21C02DEB37E346E855E3D0
:10271000C501B4010E94B8AA1816BCF01F5FF4E00E
:10272000EF0EF11C2CA13DA12C5F3F4F3DA32CA32C
:1027300034E0C30ED11C143031F1F10181911F013D
:102740000E94183B882351F3BCCF133051F44092C0
:10275000640C5092650C6092660C7092670C01E0FC
:10276000DDCFA5019401D7016D917D918D919C9153
:102770000E9449AFF7016083718382839383812F25
:102780000E94A587CBCF002321F084E69CE00E9425
:102790002F450E9425890C94E5210E9458900C94A5
:1027A000E5210091FB0A1091FC0A0237110511F492
:1027B0000C94DB1B0CF0BFC00B34110509F4ABC546
:1027C0000CF05DC00831110509F4AFC264F50231A7
:1027D000110509F40BC774F417FF02C00C94BB2158
:1027E000023011050CF409C20131110509F43AC295
:1027F0000C94BB210531110509F479C234F404317C
:10280000110509F443C20C94BB210631110509F4EA
:1028100072C20731110511F00C94BB21E091F90A45
:10282000F091FA0A76C20D31110509F4F6C2BCF432
:102830000A31110509F490C20CF483C20B31110561
:1028400009F498C20C31110511F00C94BB21809150
:10285000F90A9091FA0A0E942D820C94E5210F3119
:10286000110509F485C30CF4DFC20032110509F427
:102870003CC30B32110509F43FC40C94BB2108364C
:10288000110509F454C584F50235110509F4A0C6F3
:10289000DCF40D34110509F446C50CF440C50135CE
:1028A000110511F00C94BB210E9450700E94FB8B0B
:1028B0000E9404470E946C2768EE73E080E090E07D
:1028C0000E949F3C0C94E5210435110509F48EC645
:1028D0000CF485C60535110509F4BEC60C35110585
:1028E00009F4DDC60C94BB210D36110509F43FC572
:1028F0008CF40A36110509F475C50CF45FC50B3666
:10290000110509F491C50C36110511F40C94E5215B
:102910000C94BB210F36110509F49FC50CF48CC52E
:102920000037110511F40C94E5210137110509F464
:10293000D8C50C94BB210D3D110511F40C94821ED9
:102940000CF0D9C00B39110509F41CC60CF0A5C058
:102950000737110509F470C70CF08FC00537110552
:1029600011F40C94E5210CF02DC70337110511F07B
:102970000C94BB218AED95E00E94CE3C60E08AEC8D
:1029800095E00E94029E60E085EB95E00E94029E29
:1029900061E08EEA95E00E94029E61E083EA95E0A4
:1029A0000E94029E61E083E995E00E94029E60E041
:1029B0008AE895E00E94029E61E080E895E00E942E
:1029C000029E60E086E795E00E94029E60E08FE64E
:1029D00095E00E94029E60E087E695E00E94029EDC
:1029E00060E089E595E00E94029E60E08BE495E05E
:1029F0000E94029E60E08CE395E00E94029E60E0EF
:102A00008EE295E00E94029E60E088E195E00E94DF
:102A1000029E61E087E095E00E94029E60E088EF00
:102A200094E00E94029E61E081EF94E00E94029E89
:102A300060E08CED94E00E94029E60E08EEC94E0F9
:102A40000E94029E61E08BEB94E00E94029E60E097
:102A50008EEA94E00E94029E61E089EA94E00E947E
:102A6000029E61E08CE994E00E94029E60E088E8AA
:102A700094E00E94029E0C94E5210937110509F4A7
:102A8000E6C60CF4DCC60C38110509F44CC5063951
:102A9000110509F4E3C60C94BB210C3C110509F4A3
:102AA000DFC7ACF4083C110509F415C734F40E3B3C
:102AB000110509F455C50C94BB21093C110509F415
:102AC00051C70B3C110509F48EC70C94BB210E3C79
:102AD000110511F40C94771D14F40C94641D033D3E
:102AE000110511F40C94951D0C3D110511F40C9475
:102AF0005B1E0C94BB21053F41E0140711F40C94BC
:102B0000C3200CF043C0003381E0180711F40C948B
:102B1000AE1FECF40D32A1E01A0711F40C942F1F34
:102B20003CF40232114011F40C94D81E0C94BB21D9
:102B30000E32F1E01F0711F40C9421200F321140E6
:102B400011F00C94BB210E947B720C94E5210A3990
:102B500031E0130711F40C94E5214CF400391140D5
:102B600011F00C94BB210E941E450C94E5210C3AF7
:102B700081E0180711F40C946520043F114011F016
:102B80000C94BB210E94D93F0C94E5210835A2E0AA
:102B90001A0711F40C94F020B4F4073FE1E01E078B
:102BA00011F40C94C92014F40C94C620083F21E0C1
:102BB000120711F40C94D2200C30124011F40C9432
:102BC000E3200C94BB21003A43E0140709F4C2C18E
:102BD0003CF40B35124011F40C94F7200C94BB21FB
:102BE000073E93E0190711F40C946E21093E13403F
:102BF00011F40C947A210C94BB2180E50E94183BBF
:102C0000882329F00E944F3A6B017C0103C0C12C3C
:102C1000D12C760183E50E94183B882361F00E9445
:102C2000933A20E030E04AE754E40E941EAB0E9451
:102C3000BCB06B017C010E941E458091F90A909105
:102C4000FA0A892B41F00E94163F8091F90A90916F
:102C5000FA0A0E940B2940E0C701B6010E94A12D8B
:102C60000C94E5218091F50A84FF02C00C949A230C
:102C70008091F70A87FF02C00C949A238091F80A8A
:102C8000837011F00C949A230C94B72380916010F8
:102C900083FF25C088E893E00E94CE3C80916010BD
:102CA00083FF17C089EE9EE00E941C318BE1E9EEA4
:102CB000FEE0DE01119601900D928A95E1F760E049
:102CC00070E0CE0101960E94A684CE0101960E947A
:102CD000C73289E793E00E94CE3C0C94E5210E9424
:102CE000163F89E993E00E94CE3C0C94E5210E94B6
:102CF00087830C94E5210E941C8280916010877F5D
:102D00008062809360100C94E521803209F4108277
:102D1000319680818111F9CF60E08091F90A90911C
:102D2000FA0A0E9473820C94E5210E945E27882390
:102D300011F40C94E5210E947F830E94C28B0C94B5
:102D4000E5218091601082FF03C08B7F809360102B
:102D50000E94E68B0C94E5218091601083FD02C0F7
:102D60000C94E52183E50E94183B81110C94C1234A
:102D70000C94E52183E40E94CA3A882319F18DEA74
:102D800093E00E94CE3C8091930E882391F0BE0187
:102D90006F5F7F4F80E99EE00E94CD328E010F5F12
:102DA0001F4FF80181918F01882339F00E9400287C
:102DB000F8CF83EA93E00E94CE3C8AE00E9400288C
:102DC0000C94E5218091601082FF21C08CEB93E090
:102DD0000E94CE3C60915C1070915D1080915E10FD
:102DE00090915F104AE00E9407288FE20E9400281D
:102DF000609158107091591080915A1090915B1009
:102E00004AE00E9407280E9405290C94E5218EECD7
:102E100093E00E94CE3C0C94E521809160108E7F5F
:102E2000809360100C94E5218091601083FD02C0B6
:102E30000C94E5210E943E908091601083FD02C0B9
:102E40000C94E5214091F90A5091FA0ABE01645EA2
:102E50007F4F80E00E946A8E8C01009711F40C94E1
:102E6000E5216C8D7D8D19821C8222E0AC01CE01A2
:102E700001960E948B36811102C0F12C14C0CE0144
:102E800001960E94D88D8823C1F361E0CE0101969E
:102E90000E946F32009789F325EEDC012C931C828F
:102EA0000E948C31F82ECE0101960E94C732B801E3
:102EB000FF2089F087EF93E00E94FF3E8AE00E94A6
:102EC000002810925C1010925D1010925E1010920B
:102ED0005F100C94E5218FED93E00E94FF3E89E5A1
:102EE0009EE10E94CE3C0C94E5218091601082FD11
:102EF0000E941E458091601083FD02C00C94E52164
:102F000060E080E50E94383B182F682F8091F90A15
:102F10009091FA0A0E94738283E50E94183B8823ED
:102F200081F00E945F3AAB01BC0140935C1050936A
:102F30005D1060935E1070935F1080E99EE00E94C8
:102F40002D2F0E947F8311110C94E5210E94C28BCA
:102F50000C94E5212091F90A3091FA0A90916010C1
:102F6000926090936010C9010E942D820C94E5211B
:102F70000E94738B7B018C0120E831E541E050E039
:102F80000E94BFAEC9016DE671E00E941AAF4B010D
:102F90005C01C801B70120E13EE040E050E00E9442
:102FA000BFAECA01B90128E130E040E050E00E9424
:102FB000BFAE762E672EC62ED72EECE32E2E312CEA
:102FC000412C512CC801B701A20191010E94BFAE52
:102FD000F62EE72ECA01B901A20191010E94BFAEEF
:102FE000CB018E010F5F1F4F81149104D9F0EF9236
:102FF000FF927F936F936F927F92BF92AF929F9257
:103000008F9285E094E09F938F931F930F930E947C
:1030100089AAEDB7FEB73E960FB6F894FEBF0FBE75
:10302000EDBF5EC0A114B104D1F0EF92FF927F9387
:103030006F936F927F92BF92AF9289E094E09F93DB
:103040008F931F930F930E9489AA2DB73EB7245FD9
:103050003F4F0FB6F8943EBF0FBE2DBF41C0CD28E5
:10306000C1F0EF92FF927F936F936F927F928DE00A
:1030700094E09F938F931F930F930E9489AA4DB75B
:103080005EB7465F5F4F0FB6F8945EBF0FBE4DBF91
:1030900027C0892BA9F0EF92FF927F936F9381E174
:1030A00094E09F938F931F930F930E9489AA8DB7EB
:1030B0009EB708960FB6F8949EBF0FBE8DBF10C086
:1030C000EF92FF9285E194E09F938F931F930F936C
:1030D0000E9489AA0F900F900F900F900F900F9061
:1030E0000E94163FB80189E194E00E94FF3E8AE009
:1030F0000E9400280C94E52184E50E94CA3A8823A6
:1031000009F441C060E089E40E94383B082F61E087
:1031100070E082E50E94253B6C0160E070E083E591
:103120000E94253B182F65E470E08CE40E94253B4B
:103130005C0164EF71E087E50E94253B2C01990F4B
:1031400066087708812F90E0A816B906B4F0163407
:1031500090F401110C94D223812F0E943927811100
:103160000C9409240C94D223692D812F0E9430974E
:103170008AE00E9400281F5FE5CF86E294E00E946B
:10318000CE3C0C94E52185E40E94CA3A8823C9F01C
:103190000E94833A8093B60A85E694E00E94CE3C72
:1031A0008091B60A882319F08EE890E202C086E486
:1031B00097E00E94CE3C89EA9FE00E94CE3C0C94AE
:1031C000E52183E50E94CA3A882341F00E94123F1C
:1031D00083E494E00E94CE3C0C94E52160E070E032
:1031E00080E50E94253B8C01F82E80E50E94183B6B
:1031F000811108C0A5E4A01710F40C94E52175E432
:10320000E72E01C0E02E60E089E40E94383B582E92
:1032100060E087E50E94383B882309F478C08DB6CA
:103220009EB686E594E00E94CE3C6801DD248E2D9A
:1032300090E08C199D090196EDB7FEB7E81BF90BDC
:103240000FB6F894FEBF0FBEEDBF2DB73EB72F5F90
:103250003F4F5901E01670F0063450F451100C94B1
:103260001524802F0E943927882311F40C941524EB
:103270000F5FF0CF4090DD0283E08093DD0281E0BC
:103280008093D0027F2CE71418F135E43715F0F065
:10329000511005C0872D0E943927811117C0872D35
:1032A0000E9462A6682E072D10E00C191D090A0D58
:1032B0001B1DD8018C91681649F020E030E040E0F9
:1032C000652D872D0E949D68D8016C927394DBCF89
:1032D0008091D002882339F068EC70E080E090E0C3
:1032E0000E949F3CCFCF4092DD020FB6F8949EBE65
:1032F0000FBE8DBE0C94E521B5E4BF1538F020E07B
:1033000030E041E0652D8F2D0E949D68F394EF140D
:1033100098F70C94E5210E94C28B0C94E5210E9441
:10332000E68B0C94E5210E94FB8B0C94E5218091A7
:10333000E20983FF02C00C94E5210E949D6487FF8F
:1033400002C00C94E52183E50E94183B882359F0C4
:103350000E94933A0E94B5B0CB010E94F16A61E0ED
:1033600080E00E94B1A50E9472A50C94E521809195
:10337000E20983FF02C00C94E5210E949D64082F9E
:1033800087FF02C00C94E52183E50E94183BF82ECC
:1033900081110C942C2482E50E94183B81110C941D
:1033A0002C2410E00E9472A5112311F40C94E52145
:1033B0006F2D802F0E94736B0C94E5210E949D64F9
:1033C000182F87FD0AC08DED9CE10E94CE3C812F15
:1033D0000E94016B8AE00E940028EDA9E093DD02C3
:1033E0000C94D42680E50E94FA9681110C94E52174
:1033F00081E40E94CA3A882321F060915E05062F7D
:1034000002C00FEF10E083E50E94183B882349F0CB
:103410000E945F3A8B016F3F710519F010F00FEFBA
:1034200010E000935E05D1C780E50E94FA968111F5
:10343000CCC710925E05C9C78EE40E94183B882352
:1034400009F4C3C70E945F3A6093820B7093830BA9
:103450008093840B9093850BB8C783E50E94CA3A8A
:10346000882329F083E50E94FA968093E2090E945E
:10347000163F8AE794E00E94CE3C8091E2098823BF
:1034800069F16BEBE62E67E0F62E00E010E020E03D
:103490008091E20990E0A0E0B0E0002E04C0B69573
:1034A000A795979587950A94D2F780FF0EC0DD24E3
:1034B000D394D20E222319F08CE20E940028F70147
:1034C000859194910E94CE3C2D2D0F5F1F4FF2E00D
:1034D000EF0EF11C05301105D9F66FCC86E794E0AC
:1034E0006ACC83E50E94183B882371F00E946F3AF2
:1034F000282F30E02D3331051CF48093000265C77E
:103500008CE38093000261C70E94163F4091000245
:1035100050E060E070E081E894E00E94FD3C8AE0C9
:103520000E94002852C78091E20983FD4EC783E5BF
:103530000E94183B882309F448C70E94933A0E94CE
:10354000B5B06C3871050CF48B011093C00A009370
:10355000BF0A0E94187061E080E00E94B1A535C7E3
:103560008091E20983FD31C783E50E94183B8CA757
:1035700081110C943A2482E50E94183B81110C942D
:103580003A2423C783E50E94183B882309F41DC70A
:103590000E946F3A182F90E0CD970CF01CE3109327
:1035A000D5020E948E986B017C01212F30E0A8EE9D
:1035B000B3E00E940BAFC60ED71EE81EF91EC092E4
:1035C000D102D092D202E092D302F092D402FDC690
:1035D0008091DC028F7D80618093DC02F6C6809151
:1035E000DC028F7E80628093DC02EFC683E50E945E
:1035F000183B8823E9F00E948E986093CF0A70935D
:10360000D00A8093D10A9093D20A0E94933A20E084
:1036100030E04AE754E40E941EAB0E94BCB06093C5
:103620000102709302028093030290930402CDC6BC
:103630008091F50A84FF02C00C94B3258091F70AAB
:1036400087FF02C00C94B3258091F80A837011F0B3
:103650000C94B3250C94E52583E50E94CA3A88238F
:1036600009F4B3C60E948E986093CF0A7093D00A73
:103670008093D10A9093D20A0E94933A20E030E0DE
:103680004AE754E40E941EAB0E94BCB06093D6028D
:103690007093D7028093D8029093D90296C60E9465
:1036A0009D6487FD92C69091F50A94FD04C09091A7
:1036B000F70A97FF0AC03AEAC32E32E0D32E43EE50
:1036C000E42E49E0F42E10E009C09091F80A9370BE
:1036D00091F7682F81E00E94626877C6F6018191B8
:1036E0006F010E94183B882309F45BC0133009F076
:1036F0004FC00E94933A4B015C0120E030E040EA69
:1037000051E40E94B8AA87FF3AC0A50194016091D4
:10371000030A7091040A8091050A9091060A0E949A
:1037200043B02B013C019B01AC016091130A7091E5
:10373000140A8091150A9091160A0E941EAB60939C
:10374000130A7093140A8093150A9093160A6091D5
:1037500056057091570580915805909159050E9422
:10376000BDAAA30192010E941EAB0E94BCB060934F
:10377000560570935705809358059093590580928C
:10378000030A9092040AA092050AB092060A09C0A0
:103790000E94933AD70154966D937D938D939C9399
:1037A00057971F5FB4E0EB0EF11C143009F096CF71
:1037B0000E9464460AC60E94D98F8FE29FE00E9451
:1037C0006A9503C60091F90A1091FA0A94E0F12C67
:1037D00040E0915021F1F8018081282F2B7F213486
:1037E00021F421812133D9F407C08035C1F48181CE
:1037F00080538A3048F013C0813421F0853421F49D
:1038000041E002C0FF24F39498012E5F3F4F8901ED
:103810002F5F3F4FF80180818032C9F3DACF411129
:103820000E94163FFF2021F083EB96E00E94CE3CE1
:10383000C8010E940B29C9C50E94AC89C6C581E098
:1038400080935E0380935D030E94CE89BEC5109273
:103850005E0310925D030E94CE89B7C582E40E9488
:10386000CA3A882351F08091DA029091DB02892BC9
:1038700031F00E946F3A182F03C010E001C01FEF13
:1038800085E50E94CA3A882351F08091DA0290912E
:10389000DB02892B31F00E946F3A082F03C000E051
:1038A00001C00FEF82E50E94CA3A882349F0809157
:1038B000DA029091DB02892B29F00E946F3A03C053
:1038C00080E001C08FEF89830A831B83CE010196BC
:1038D0000E944D3B7AC50E949D64182F87FD75C5D7
:1038E0000091480A84E40E94183B882311F40C9448
:1038F000E8250E94933A6B017C0120E030E0A901A9
:103900000E94B8AA882341F124E01202F001112498
:10391000EC5BF54FC082D182E282F38220E030E09E
:10392000A9016091440A7091450A8091460A9091DC
:10393000470A0E94B8AA81110CC080E090E0A0EE76
:10394000BFE38093440A9093450AA093460AB0933C
:10395000470A01E00C94E82580E08093480A0E9421
:103960005A4733C50E949D6487FD2FC59AEAC92E28
:1039700092E0D92E23EEE22E29E0F22E10E0D601BD
:103980008D916D010E94CA3A882331F10E94933AC9
:1039900068A379A38AA39BA380E1EAE5F2E0DE01B4
:1039A000119601900D928A95E1F79E012F5F3F4F8E
:1039B00047EB56E0612FCE0180960E94494468A1F2
:1039C00079A18AA19BA10E94BCB0F7016083718399
:1039D000828393830E94D7441F5FF4E0EF0EF11CB3
:1039E000143069F6F2C40E949D6487FDEEC40AEAB1
:1039F000C02E02E0D02E83EEE82E89E0F82E10E0F3
:103A0000D6018D916D010E94CA3A882311F10E945E
:103A1000933A6C8F7D8F8E8F9F8F80E1EAE6F2E084
:103A2000DE01119601900D928A95E1F79E012F5FBC
:103A30003F4F44EC56E0612FCE014C960E94494422
:103A40008C8D9D8DAE8DBF8DF70184A395A3A6A30C
:103A5000B7A31F5FF4E0EF0EF11C143089F6B5C474
:103A60008091F60A87FF02C00C94EE258091F70A38
:103A70008E7011F00C94EE254091170A5091180A9F
:103A80006091190A70911A0A8DEC96E00E941B3D14
:103A900040911B0A50911C0A60911D0A70911E0AE8
:103AA00086E19EE00E941B3D40911F0A5091200A32
:103AB0006091210A7091220A8BED9EE00E941B3DCD
:103AC0008AE00E94002881C48091F50A81FF02C02B
:103AD0000C9434268091F60A81FF02C00C9434269F
:103AE0008091F70A8C7011F00C9434266EC411E6A4
:103AF000E12E13E0F12E10E088E5810F0E94CA3A12
:103B0000882359F00E94933AD7016D937D938D934A
:103B10009C931397812F0E94A5871F5FB4E0EB0E43
:103B2000F11C133049F70C94C91340904C0C509081
:103B30004D0C60904E0C70904F0C209121023091F2
:103B400022024091230250912402C301B2010E943B
:103B500049AF6CA37DA38EA39FA38090500C90903F
:103B6000510CA090520CB090530C20912502309132
:103B700026024091270250912802C501B4010E94FB
:103B800049AF68A779A78AA79BA7C090540CD0908B
:103B9000550CE090560CF090570C20912902309172
:103BA0002A0240912B0250912C02C701B6010E94BB
:103BB00049AF6CA77DA78EA79FA720912D023091BA
:103BC0002E0240912F0250913002C301B2010E9497
:103BD00049AF2B013C0120913102309132024091DA
:103BE000330250913402C501B4010E9449AF4B0128
:103BF0005C0120913502309136024091370250919C
:103C00003802C701B6010E9449AF6B017C010E94D6
:103C1000163F8CE097E00E94CE3C83E50E94CA3AB2
:103C2000882321F00E94833A80931F0280911F0213
:103C3000882319F08EE593E002C086ED95E00E949E
:103C4000CE3C84E097E00E94CE3C4CA15DA16EA1E9
:103C50007FA186E39FE00E941B3D48A559A56AA568
:103C60007BA580E69FE00E941B3D4CA55DA56EA54F
:103C70007FA58DE59FE00E941B3D86E394E00E94B6
:103C8000CE3C8CEF96E00E94CE3CB301A20186E3CD
:103C90009FE00E941B3DB501A40180E69FE00E94C9
:103CA0001B3DB701A6018DE59FE00E941B3D8AE008
:103CB0000E9400288AC383E50E94183B882331F0C4
:103CC0000E945F3A70934902609348028091F50A1E
:103CD0009091F60AA091F70AB091F80A892B8A2BE5
:103CE0008B2B09F072C360914802709149028CE1FC
:103CF00097E00E942C3D85E20E9400288AE00E9405
:103D0000002863C30E949D64F82E87FD5EC383E58F
:103D10000E94183B0F2D0F2C000C110B882369F10A
:103D20000E945F3AF801EE0FFF1FEF5EFD4F7183B7
:103D30006083000F111F000F111FF801E75CFD4F9A
:103D40007F01072E000C880B990B0E94BFAA2AE066
:103D500037ED43E25CE30E941EABF801EA5CFA4FE8
:103D600020813181428153810E941EABD7016D9326
:103D70007D938D939C93139728C30E94163F85E4EF
:103D80000E94002880E38F0D0E940028000F111F61
:103D9000F801EF5EFD4F6081718180E297E00E9443
:103DA0002C3D85E20E9400288AE00E9400280DC375
:103DB0008AE50E94183B811106C083E50E94183BEA
:103DC000882309F440C00E94933A20E030E040E0AC
:103DD00050EC0E94B8AA87FDA6C70E94933A20E043
:103DE00030E040E050E40E94A9B118160CF495C7E9
:103DF0000E94933A6B017C0184E00E94C587811187
:103E000022C02091FF093091000A4091010A50918F
:103E1000020AC701B6010E941EAB0E94B5B02091F4
:103E2000E4023091E502260F371F3093E50220931C
:103E3000E4022091B40A3091B50A620F731F7093A7
:103E4000B50A6093B40A8091F70A87FD72C7809122
:103E5000F80A837009F06DC70E94163FB6C285E468
:103E60000E94FA96811173C080E50E94CA3A8823A5
:103E700051F00E94933A6093790C70937A0C80937E
:103E80007B0C90937C0C89E40E94CA3A882381F0D1
:103E90000E94933A2CEA35EC47E25EE30E941EABA7
:103EA00060937D0C70937E0C80937F0C9093800CBC
:103EB00084E40E94CA3A882381F00E94933A2CEA53
:103EC00035EC47E25EE30E9443B06093810C70934F
:103ED000820C8093830C9093840C0E94163F409137
:103EE000790C50917A0C60917B0C70917C0C80E382
:103EF00097E00E941B3D2CEA35EC47E25EE36091BF
:103F00007D0C70917E0C80917F0C9091800C0E94B2
:103F100043B0AB01BC018CE297E00E941B3D2CEA50
:103F200035EC47E25EE36091810C7091820C8091E8
:103F3000830C9091840C0E941EABAB01BC0188E203
:103F400097E00E941B3D8AE00E9400283EC20E942A
:103F5000123F84E397E00E94CE3C37C280E50E9486
:103F6000CA3A882351F00E94933A6093C20A709330
:103F7000C30A8093C40A9093C50A89E40E94CA3A8E
:103F8000882381F00E94933A2CEA35EC47E25EE305
:103F90000E941EAB6093C60A7093C70A8093C80A3A
:103FA0009093C90A84E40E94CA3A882381F00E944F
:103FB000933A2CEA35EC47E25EE30E9443B060930B
:103FC000CA0A7093CB0A8093CC0A9093CD0A0E94C0
:103FD000163F4091C20A5091C30A6091C40A709181
:103FE000C50A80E397E00E941B3D2CEA35EC47E2CE
:103FF0005EE36091C60A7091C70A8091C80A9091E9
:10400000C90A0E9443B0AB01BC018CE297E00E9458
:104010001B3D2CEA35EC47E25EE36091CA0A7091E1
:10402000CB0A8091CC0A9091CD0A0E941EABAB01C5
:10403000BC0188E297E00E941B3D8AE00E940028B4
:10404000C4C183E50E94CA3A182F882371F00E94E8
:10405000933A0E94B5B070933E0260933D0221E016
:10406000672B09F020E020936F0580E50E94CA3A93
:10407000882359F020913D0230913E02232B11F00C
:104080000E94833A80936F05A0C111119EC10E94C6
:10409000163F8FE597E00E94CE3C80916F05882304
:1040A00019F08EE890E202C086E497E00E94CE3CD0
:1040B00060913D0270913E028EE497E00E942C3D9B
:1040C0008AE497E00E94CE3C80C10E94A7968111AD
:1040D0007CC10BE21DE0E8E5FCE0FDA3ECA39E0142
:1040E0002F5F3F4F190144E0C42E41E2D42E7901E5
:1040F000F8016591759185919491ACA1BDA18D90C8
:104100009D90AD90BD90BDA3ACA3A50194010E946C
:1041100048AF2B013C01F701608371838283938355
:1041200020E030E040EA51EC0E94A9B187FD0AC0CE
:1041300020E030E040EA51E4C301B2010E94B8AA95
:1041400018162CF4F601849118160CF4F8C5D70152
:104150008D909D90AD90BD907D0120E030E040EAD3
:1041600051ECC501B4010E94A9B187FDF2C520E060
:1041700030E040EA51E4C501B4010E94B8AA181623
:104180000CF0EEC5E6C50E9457811FC10E94E97A76
:104190001CC161E083E50E94383B91E089270E94C1
:1041A000B46113C181E08093870B0E94FA7B109267
:1041B000870B882309F409C10E94163F80E997E024
:1041C0000E94CE3C02C18091601082FF04C08064D6
:1041D00080936010FAC083FFF8C00E943E90F5C043
:1041E0000E949D6487FDF1C00E94C664EEC00E94DB
:1041F0009D64D82E87FDE9C085E50E94CA3A8823D0
:10420000A1F1ED2C0D2C000CFF080E94933A4B01FC
:104210005C0120E030E0A9010E94A9B187FF04C041
:10422000B7FAB094B7F8B094870123E0000F111FDC
:104230002A95E1F7045C154FD8018D929D92AD92BD
:10424000BC92139720E030E048E453E4C501B40188
:104250000E94A9B118164CF480E090E0A8E4B3E401
:10426000F80180839183A283B3838CE40E94CA3ACD
:10427000882309F4AAC00D2DDD0C110B0E94933A7E
:104280006B017C0120E030E0A9010E94A9B187FF09
:1042900004C0F7FAF094F7F8F09420E030E048E436
:1042A00053E4C701B6010E94A9B1980193E0220F1F
:1042B000331F9A95E1F7F901E45CF54F18162CF0DD
:1042C000C482D582E682F78280C080E090E0A8E4D4
:1042D000B3E484839583A683B78377C081E080931A
:1042E000F30460E083E50E94383B81116EC00E94B8
:1042F000BA786BC00E94738B6B017C016D337105C2
:104300008105910520F087EB97E00E941C9E83EBCE
:1043100097E00E941C9E8FE997E00E94CE3C2DE31F
:10432000C216D104E104F104F8F019828FEF8A83F8
:104330001B82CE0101960E944D3B81E08093E602F4
:1043400040E060E375E780E090E00E94A12D80915D
:10435000E602882349F019821A821B82CE01019657
:104360000E944D3B1092E6028BE997E090936F0319
:1043700080936E032AC00E94589027C00091FB0AC8
:104380001091FC0A0E948E986093CF0A7093D00A15
:104390008093D10A9093D20A0023B9F00E94163F6D
:1043A00084E50E940028B8017727072E000C880BAF
:1043B000990B0E94742880E20E94002884E397E011
:1043C0000E94CE3C02C00E9458903AAD311102C00A
:1043D0000E94AA784DA94093DD02E6C40E941E45C2
:1043E000109220020E948E986093CF0A7093D00A98
:1043F0008093D10A9093D20A80914A0290914B0205
:10440000A0914C02B0914D028093E0029093E102A2
:10441000A093E202B093E302809148029091490296
:104420009093DF028093DE0284E690E0909349024D
:104430008093480281E080935E030E94CE898AE5E2
:104440000E94CA3A082F88E50E94CA3A182F89E5C7
:104450000E94CA3A18136BC1011711F0312E68C1BE
:104460003324339411E041E04CA782E50E94183BCD
:10447000882369F00E94933A6B017C0120E030E0D0
:10448000A9010E94B8AA882309F453C006C0C12C10
:10449000D12C00EAE02E00E4F02E111103C03320ED
:1044A00009F41EC120E030E0A901C701B6010E9455
:1044B00049AF962EA72EB82EC92ED090600CE09052
:1044C000610CF090620C0091630C2D2D3E2D4F2D50
:1044D000502F0E94B8AA87FD03C0D92C75010C2D5E
:1044E00080E090E0A0E8B0E48C8F9D8FAE8FBF8F0E
:1044F00020E030E048EC53E46D2D7E2D8F2D902F81
:104500000E94B8AA87FF02C08F2D04C0D12CE12CD5
:1045100088EC03E44D2D5E2D682F702F49835A835C
:104520006B837C83BE01645E7F4FCE0101960E9447
:104530009B88112309F4CFC0332009F4C9C010921D
:10454000580C1092590C10925A0C10925B0C10924D
:104550005C0C10925D0C10925E0C10925F0C0E942D
:10456000E388E4E0F1E254915CABEFE1FDE0C5905B
:10457000D590E590F490E3E2FDE085909590A590CC
:10458000B490A7019601C501B4010E94B8AA87FFA3
:1045900005C0A7019601C501B40104C0A50194019D
:1045A000C701B6010E9443B02B013C01EDEEF0E2E1
:1045B00085919591A591B4918CA39DA3AEA3BFA322
:1045C000E9EEF0E2259135914591549128A739A75C
:1045D0004AA75BA7BC01CD010E94A9B1181634F40B
:1045E00028A439A538AB0AA51BA505C02CA04DA150
:1045F00048AB0EA11FA1A3019201C301B2010E9409
:104600001EAB20E030E040E85FE30E9449AF0E942B
:10461000F7B1222D38A9A8010E941EAB68A379A387
:104620008AA39BA3E5E0F1E2149120E030E040ECA6
:104630005FE3C501B4010E941EAB4B015C01612F19
:10464000110F770B880B990B0E94BFAA9B01AC013D
:10465000C501B4010E941EAB69837A838B839C835E
:1046600020E030E040EC5FE3C701B6010E941EABE2
:104670006B017C015CA9652F550F770B880B990B9B
:104680000E94BFAA9B01AC01C701B6010E941EABEC
:104690006C8F7D8F8E8F9F8FAE01405E5F4FBE010E
:1046A0006F5F7F4FCE014C960E9479880E94D98916
:1046B0001092580C1092590C10925A0C10925B0CDC
:1046C00010925C0C10925D0C10925E0C10925F0CBC
:1046D00080E00E94A28A332019F081E00E94A28A21
:1046E0008CA5882319F082E00E94A28A0E94E388A8
:1046F00080915D0380935E038091E0029091E102DE
:10470000A091E202B091E30280934A0290934B029F
:10471000A0934C02B0934D028091DE029091DF0293
:1047200090934902809348020E9425894ECE382EEC
:104730000CA79BCE88E50E94CA3A81115F9889E553
:104740000E94CA3A81118A988AE50E94CA3A88234F
:1047500031F080910801817080930601479885E4CB
:104760000E94CA3A882309F430CE12982ECE5F9860
:104770008A98809108018170809306014798129869
:1047800024CE0E945F3AAB01BC0140935C10509371
:104790005D1060935E1070935F1080E99EE00E9450
:1047A0002D2F13CEA8952DE234E041E0602F812F0C
:1047B0000E949D68812F0E94373A982E61E0812FD8
:1047C0000E943097E12CF12CEC14FD0414F00C94B1
:1047D000B418A89560E0812F0E940197C301B2012F
:1047E0000E949F3CA89561E0812F0E940197C30120
:1047F000B2010E949F3CA89560E0812F0E94019722
:10480000C301B2010E949F3CA8959FEFE91AF90AE3
:10481000DBCF28E334E041E060E0812F0E949D6817
:104820008AE00E9400280C94B81862E0802F0E9451
:10483000309761E070E080E090E00E945498602E34
:10484000712C6C187D08802F0E9462A6F501E60D80
:10485000F71D80830C9438190E94933A0E94B5B0DA
:10486000CB010E94F16A61E081E00E94B1A511E0F4
:104870000C94D2190E94933A0E94B5B06C3871051D
:104880000CF06EC17093C00A6093BF0A0E9418704A
:1048900060E081E00E94B1A58091BB0A9091BC0AC2
:1048A000A091BD0AB091BE0A88A399A3AAA3BBA3F5
:1048B0008FE78093CE0A80E090E0A0E8BFEB8C8F7A
:1048C0009D8FAE8FBF8F81E0809310021CA21DA22E
:1048D0001EA21FA218AA19AA1AAA1BAA1EAA2CE372
:1048E0002FAB3CE138AF46E449AF10E051E05CABA0
:1048F000812C912C54016091BF0A7091C00A072E3F
:10490000000C880B990B0E94BFAA6B017C012C8DB7
:104910003D8D4E8D5F8D0E94B8AA8823F9F02091BD
:10492000BB0A3091BC0A4091BD0A5091BE0ACC8EA0
:10493000DD8EEE8EFF8E8CA5811109C0C701B601F8
:104940000E94B8AA182F111F1127111F07C0C701F5
:10495000B6010E94B8AA87FDFBC010E00E948E98A5
:104960006B017C01DC01CB0128A939A94AA95BA90B
:10497000821B930BA40BB50BB7FD33C0D701C60147
:1049800088519C4FAF4FBF4F88AB99ABAAABBBAB25
:1049900080E00E94016B8CEC9CE10E94CE3C811473
:1049A0009104A104B104B9F0D501C401805F984D10
:1049B000AF4FBF4FBC01CD016C197D098E099F0916
:1049C00028EE33E040E050E00E94BFAECA01B901DA
:1049D0000E94742803C08FE30E9400288AE00E948E
:1049E000002880E00E942C290E948E986093CF0AB4
:1049F0007093D00A8093D10A9093D20A8091BB0A17
:104A00009091BC0AA091BD0AB091BE0A89839A8395
:104A1000AB83BC8311110AC0AE01445E5F4FBE017F
:104A20006F5F7F4FCE0180960E94103C29803A80B4
:104A30000B819C8198A79101402F592F6C8D7D8D02
:104A40008E8D9F8D0E9448AF2B013C0120E030E00D
:104A5000A9010E94A9B187FF04C077FA709477F882
:104A6000709481149104A104B104E1F420E030E0D9
:104A700040E85FE3C301B2010E94B8AA87FF1EC0ED
:104A8000ACA9AA2339F055E0852E5DE0952EA12C26
:104A9000B12C03C0812C912C54018C0C9D1CAE1C9C
:104AA000BF1C0CC020E030E040E450E4C301B20180
:104AB0000E94A9B1181614F446015701112389F177
:104AC0002CA13DA14EA15FA1211531054105510544
:104AD00041F0D701C601821B930BA40BB50BB7FDA8
:104AE00020C09101402F58A56EA97FA988AD99AD2E
:104AF0000E9448AF20E030E040E85FE30E94B8AA9F
:104B000087FD26C0D701C601805A9541AF4FBF4FE0
:104B10008CA39DA3AEA3BFA32EAA3FAA08AF98A5BE
:104B200099AF80911002882399F081149104A10417
:104B3000B10411F41CAADFCEA0E1CA1AA7E2DA0A76
:104B4000E108F108C818D908EA08FB08F7FCF2CF19
:104B500080911002882309F438CC1092100235CCD1
:104B60006CE870E08FCE0E941E4588E50E94CA3A2C
:104B7000882331F05F9A809160038E7F8093600379
:104B800089E50E94CA3A882331F08A9A80916003AD
:104B90008D7F809360038AE50E94CA3A882361F082
:104BA000809108018095817080930601479A8091D9
:104BB00060038B7F8093600385E40E94CA3A882358
:104BC00009F403CC0E94F42600CC0E940447FDCBDC
:104BD000602F83E50E94383B0C94AD1C83E50E9456
:104BE000183B882391F00E94933A6093170A7093C0
:104BF000180A8093190A90931A0A60931F0A7093F7
:104C0000200A8093210A9093220A80E50E94183B93
:104C1000882351F00E94933A6093170A7093180A00
:104C20008093190A90931A0A82E50E94183B882300
:104C300051F00E94933A60931B0A70931C0A809370
:104C40001D0A90931E0A84E50E94183B882309F4EC
:104C5000BCCB0E94933A60931F0A7093200A809302
:104C6000210A9093220AB1CB82E40E94CA3A882397
:104C700051F00E944F3A6093F3097093F4098093C6
:104C8000F5099093F60983E50E94CA3A882351F00A
:104C90000E94933A6093230A7093240A8093250A12
:104CA0009093260A84E50E94CA3A882351F00E9414
:104CB000933A6093270A7093280A8093290A909365
:104CC0002A0A8AE40E94CA3A882309F47ECB0E9409
:104CD000933A6B017C012AE037ED43E25CE30E94EA
:104CE000A9B187FD13C02AE939E949E95EE3C701A3
:104CF000B6010E94B8AA18164CF0C0924605D09290
:104D00004705E0924805F09249055FCB0E94123FAB
:104D10008DED96E00E94CE3C58CBC12CD12CE12CDD
:104D200060E4F62E69C8C12CD12CE12C50ECF52E94
:104D300063C882E50E94CA3A81118EC846CBB7FA91
:104D4000B094B7F8B094F70180829182A282B382C6
:104D5000FEC90E94123F82E797E00E94CE3C35CB0D
:104D60000C5F1F4FFFEFCF1ADF0A2DE0073312074A
:104D700009F0BEC931E6E32E33E0F32E10E0F10175
:104D800081919191A191B1911F01F701819391932B
:104D9000A193B1937F01812F0E94A5871F5F1330DC
:104DA00071F70E94258911CB4BAD5CAD0FB6F8941D
:104DB0005EBF0FBE4DBFEC960FB6F894DEBF0FBEC0
:104DC000CDBFDF91CF911F910F91FF90EF90DF90BA
:104DD000CF90BF90AF909F908F907F906F905F909B
:104DE0004F903F902F900895129A08955F9A809166
:104DF00060038E7F809360038A9A809160038D7F29
:104E000080936003809108018095817080930601F2
:104E1000479A809160038B7F809360030C94F42603
:104E2000C42F0E9450700E94123F84E699E00E94B5
:104E3000CE3C89EE93E030E6019729F0232F2A95A6
:104E40000000E9F7F9CFF89489EE93E038EE019786
:104E500029F0232F2A950000E9F7F9CF0E9450701E
:104E6000CC2319F00E94F62602C00E94F426A895D1
:104E7000FECFFF920F931F93CF93DF931F92CDB777
:104E8000DEB7F82E04E819E041E050E0B801CE01A9
:104E900001960E942BAA89818F1102C081E007C070
:104EA0000F5F1F4F89E00F39180771F780E00F90EF
:104EB000DF91CF911F910F91FF9008959091601015
:104EC00093FB882780F993FF06C081E09091930EB1
:104ED000911101C080E0089510925E0508958F92AF
:104EE0009F92AF92BF92CF92DF92EF92FF920F9379
:104EF000CF93DF931F92CDB7DEB75C016B017A01D0
:104F00004901F501808191810E9499AE8983002336
:104F100011F0F6018083BE016F5F7F4FC4010E94D4
:104F2000C18FF50180819181019691838083FFEF8C
:104F3000CF1ADF0A81E0E81AF10819F780E00F9034
:104F4000DF91CF910F91FF90EF90DF90CF90BF90C6
:104F5000AF909F908F9008957F928F929F92AF9283
:104F6000BF92CF92DF92EF92FF920F931F93CF9356
:104F7000DF931F92CDB7DEB77C0159018B016B0126
:104F8000C40ED51E0C151D0559F1F70180809180C6
:104F9000F80171908F017982C4010E9499AE781650
:104FA00091F0672DC4010E94A1AEC4010E9499AE88
:104FB0009981891741F00E94163F85EC97E00E9485
:104FC000CE3C81E00EC0BE016F5F7F4FC5010E94E5
:104FD000C18FF70180819181019691838083D2CF27
:104FE00080E00F90DF91CF911F910F91FF90EF9094
:104FF000DF90CF90BF90AF909F908F907F9008955B
:105000009091C00095FFFCCF8093C60008958F92C9
:105010009F92AF92BF92EF92FF920F931F93CF9305
:10502000DF93CDB7DEB7A0970FB6F894DEBF0FBE03
:10503000CDBF611571058105910591F100E0842EC8
:10504000912CA12CB12C102FEE24E394F12CEC0E1A
:10505000FD1EE00EF11C07FDFA94A50194010E94CB
:10506000BFAEF7016083B901CA010F5F6115710519
:105070008105910541F71F3F31F1E1E0F0E0EC0FD0
:10508000FD1FE10FF11D17FDFA9580818A3010F0A8
:1050900097E301C090E3890F0E9400281150EBCFE5
:1050A00080E3A0960FB6F894DEBF0FBECDBFDF91B0
:1050B000CF911F910F91FF90EF90BF90AF909F9075
:1050C0008F900C940028A0960FB6F894DEBF0FBE08
:1050D000CDBFDF91CF911F910F91FF90EF90BF90C7
:1050E000AF909F908F900895CF92DF92EF92FF92B2
:1050F0006B017C0197FF0BC08DE20E940028F094A9
:10510000E094D094C094C11CD11CE11CF11C4AE075
:10511000C701B601FF90EF90DF90CF900C94072865
:105120008F929F92AF92BF92CF92DF92EF92FF92B7
:10513000CF936B017C01B42E20E030E0A9010E94E6
:10514000B8AA87FF07C08DE20E940028F7FAF09402
:10515000F7F8F094C0E060E070E080E09FE3CB15EA
:1051600041F02DEC3CEC4CEC5DE30E941EABCF5FBC
:10517000F6CF9B01AC01C701B6010E9449AF6B019C
:105180007C010E94BCB04B015C014AE00E940728F0
:10519000CC2389F1C501B4010E94BDAA9B01AC01D9
:1051A000C701B6010E9448AF6B017C018EE20E94EC
:1051B000002820E030E040E251E4C701B6010E943F
:1051C0001EAB4B015C010E94B5B06B01770FEE087E
:1051D000FF08C701B6010E947428C701B6010E94EA
:1051E000BFAA9B01AC01C501B4010E9448AF6B018D
:1051F0007C01C150F1F6CF91FF90EF90DF90CF90FE
:10520000BF90AF909F908F9008958DE00E940028EE
:105210008AE00C940028CF93DF93EC0189918823D6
:1052200019F00E940028FACFDF91CF910C94052944
:105230008091FE0A9091FF0A981759F0E92FF0E04B
:10524000E250F54F82819F5F9F779093FF0A90E035
:1052500008958FEF9FEF08952F923F924F925F92A4
:105260006F927F928F929F92AF92BF92CF92DF9276
:10527000EF92FF920F931F93CF93DF93CDB7DEB7DB
:105280002A970FB6F894DEBF0FBECDBFF82E8091DF
:10529000F104843008F0B3C18091F104843008F047
:1052A000DAC08091FE0A9091FF0A891B8F7709F47A
:1052B000D2C00E94182997FDEFCF8A3019F08D30A7
:1052C00009F0C0C01092EB028091800B9091810B8D
:1052D000FC01E451FD4F1082892B39F01092810BB3
:1052E0001092800B0CEE12E003C00E94D990D4CF34
:1052F000F8018191803211F48F01FACF8E3409F0D8
:105300006AC00115110509F466C062ED78E0C801B4
:105310000E946FAA6C01892B41F06EE470E0C80115
:1053200004960E9497B2009709F4C8014AE050E041
:1053300060E070E001960E94E7A74B015C0180915C
:10534000820B9091830BA091840BB091850B0196F9
:10535000A11DB11D88169906AA06BB0631F0CD28FD
:1053600021F460E08FE998E049C06AE270E0C8018A
:105370000E94C6B29C01009709F1982F901BE12C66
:10538000992339F09150F801E90FF11D8081E82649
:10539000F7CF4AE050E060E070E0C90101960E945A
:1053A000E7A74E2C512C612C712C641575058605D0
:1053B000970541F060E080E898E020C060E086E575
:1053C00098E01CC08092820B9092830BA092840B79
:1053D000B092850B16C08091601080FF12C069EDFD
:1053E0007AE0C8010E946FAA009729F0FC0183812E
:1053F00080538A3030F460E086E598E00E94D678E9
:105400002AC08091F3048130B9F067E470E0C801EC
:105410000E9497B2009781F04AE050E060E070E0AF
:1054200001960E94E7A7643071058105910520F47B
:105430008FED97E00E94CE3C61E08CEE92E00E94FE
:105440001A792ACF20E83BE04CEE52E06BEE72E096
:105450000E946F7821CF8091601082FFD0C01A82A5
:10546000198211E040915C1050915D1060915E10C6
:1054700070915F108091581090915910A0915A101E
:10548000B0915B10481759076A077B0708F410E0D2
:1054900000E680E1E82E99E6D92E8091F10484306F
:1054A00008F0ADC01111ABC08091980E9091990E8B
:1054B000A0919A0EB0919B0E80935C1090935D101A
:1054C000A0935E10B0935F1041E050E0BE016D5FAD
:1054D0007F4F80E99EE00E940133019719F48B8190
:1054E00090E002C08FEF9FEF40905C1050905D10F5
:1054F00060905E1070905F108090581090905910DE
:10550000A0905A10B0905B1011E0481459046A043E
:105510007B0408F410E08F3FFFEF9F0761F448140D
:1055200059046A047B0438F40E94123F87ED98E026
:105530000E94CE3CB2CF40916D038A3079F08D301D
:1055400069F0481459046A047B0408F499C08981FD
:105550009A81009719F001969A83898310924C03DF
:1055600089819A81FC01049FE00DF11D1124E0590D
:10557000FC4F1082892B31F01A82198280E00E9440
:10558000057902C00E94D990481459046A047B042A
:1055900008F483CF0E941E4580E99EE00E94BE323F
:1055A00080915710882331F1815080935710D89EF5
:1055B000C001112462E08357944F0E947382E091EE
:1055C000571024E0E29FF0011124E757F44F408187
:1055D00051816281738140935C1050935D106093A0
:1055E0005E1070935F1080E99EE00E942D2F0E9454
:1055F0007F8353CF0E941C82E092F3044ECF0E941F
:105600008E984B015C01F11048C08091880B81118C
:1056100044C020E04091D6025091D7026091D80258
:105620007091D902411551056105710509F43FC01A
:105630008091CF0A9091D00AA091D10AB091D20A5C
:10564000840F951FA61FB71FB501A401481B590B56
:105650006A0B7B0B77FD2BC00E94123F60914A0CB6
:1056600070914B0C86EE98E00E94FF3E8AE00E940B
:10567000002840E060E070E080E090E00E941027A9
:10568000049FA001112440595C4F9E012F5F3F4FA2
:105690006CE473E00E946F7800CF8092CF0A909202
:1056A000D00AA092D10AB092D20A21E0B3CF809161
:1056B000010290910202A0910302B0910402892B91
:1056C0008A2B8B2B09F450C09091190F80911A0FDF
:1056D000981749F08092CF0A9092D00AA092D10AEE
:1056E000B092D20A41C021110BC20E948E98C09084
:1056F000CF0AD090D00AE090D10AF090D20A00915F
:1057000001021091020220910302309104020C0D5B
:105710001D1D2E1D3F1DDC01CB01801B910BA20B1B
:10572000B30BB7FDEDC18091550381111DC081E020
:10573000809355035F9A809160038E7F809360030E
:105740008A9A809160038D7F809360038091080125
:105750008095817080930601479A809160038B7FCA
:10576000809360030E94F42680915103909152032C
:10577000A0915303B091540395018401081B190BA8
:105780002A0B3B0B37FD23C19091190F80911A0F03
:10579000981751F0E0911A0F17E4E19FF0011124DE
:1057A000EA54FA4F608102C060915E05662311F0F1
:1057B00070E002C060E070E089E00E946C97809128
:1057C000D30A882309F4F6C0E0901B02F0901C0273
:1057D00000911D0210911E026091760C7091770C61
:1057E0006E5F7F4F072E000C880B990B0E94BFAA9B
:1057F0009701A8010E94B8AA87FDDCC030901A0F5B
:10580000212C1C821D821E828091190F831509F4A0
:1058100067C0832D90E027E4289FF001299FF00DB9
:105820001124E059FA4F458956896789708D452BB7
:10583000462B472B89F4418D528D638D748D452BFA
:10584000462B472B49F4458D568D678D70A1452B0E
:10585000462B472B09F43FC047E4489F9001499FDE
:10586000300D1124B90160597A4F6B01FB01618140
:105870007281838194810E94F7B12B013C01F60172
:1058800061A172A183A194A10E94BDAA6F837887B0
:1058900089879A87F60165A176A187A190A50E94C4
:1058A000BDAA9B01AC016F81788589859A850E948C
:1058B00043B0A30192010E941EAB3B016C01222D5B
:1058C0003C814D815E810E94A9B1181624F4262CDA
:1058D0007C82CD82DE8281E0830D8F70382E94CF62
:1058E000209113023091140240911502509116023A
:1058F000622D7C818D819E810E941EAB9701A80143
:105900000E9449AF3B016C012090170230901802B1
:105910004090190250901A029B01AC01B701C801D6
:105920000E94A9B118166CF09101A201B301C60141
:105930000E94A9B118161CF47101820102C0730102
:10594000860140904D0350904E0360904F0370903D
:1059500050039701A801C301B2010E94A9B1181612
:10596000C4F420E037ED43EA5CE3B701C8010E94CC
:105970001EAB6B017C0128E431EE4AE75FE3C30113
:10598000B2010E941EABA70196010E9449AF7B01A4
:105990008C01C701D80180934D0390934E03A093CF
:1059A0004F03B0935003B701C8010E94B5B0CB01BB
:1059B0000E94F16AF4E68F0E911CA11CB11C80922A
:1059C000510390925203A0925303B09254030E9449
:1059D000D9908091F304882309F49AC0809105023C
:1059E0008130A1F08091601080628093601081E02E
:1059F0008093050264EF71E080E090E00E949F3C9C
:105A00000E9487838091601083FD7DC00E948E98E4
:105A10006B017C0180910002882359F18091DD02A5
:105A2000882339F1409156035091570360915803F0
:105A30007091590397018601041B150B260B370B38
:105A400037FD2AC0833079F03CF4813094F00E9415
:105A5000163F82E599E00BC0843059F40E94163F4E
:105A600083E299E004C00E94163F8BE399E00E9414
:105A7000CE3C2091000230E0A8EEB3E00E940BAFD4
:105A8000C60ED71EE81EF91EC0925603D0925703C9
:105A9000E0925803F09259038091D5028823C1F116
:105AA0000E948E980091D1021091D2022091D302CF
:105AB0003091D402DC01CB01801B910BA20BB30B04
:105AC000B7FD26C00E948E986B017C012091D50203
:105AD00030E0A8EEB3E00E940BAFC60ED71EE81E62
